:1000000002308A00892A0000FF00030E8301A1004C
:100010000A08A0008A010408A2007708A300780853
:10002000A4007908A5007A08A600831383120B1E8A
:100030001B288B1832288C308400001C21280C18B7
:100040003528220884002308F7002408F800250832
:10005000F9002608FA0020088A00210E8300FF0E0E
:100060007F0E09008A110A1252288A110A124028AA
:100070000A108A100A11820728340C34013406341D
:100080008E010C308F0080308E00A80A2808023CB8
:10009000031D4E2804308606A801AB0A0C108A11F5
:1000A0000A12212883160C108312A70A2708033C82
:1000B00003185E28A70183160C1483128B108A1173
:1000C0000A1221282017BA20EA3A733A613920240B
:1000D0006F393A172000201020102519641D2519AA
:1000E000641D251964002017BA20EA3A733A613971
:1000F000A02669373A172000201020102519641D0A
:100100002519641D251964002017BA20EA3A733AAC
:100110006139A029E5333A17200020102010251955
:10012000641D2519641D25196400201DD232EC3789
:100130006A10C434E734F4306C1D20002010201005
:100140002519641D2519641D2519640033308400A8
:10015000831300080319BA280130F800F701F70BE0
:10016000AF28F80BAE284A30F700F70BB528B828AF
:10017000800BAC2808003A0EF039F7000F30080564
:100180007704880000000814C52808100800080833
:10019000F700080E0F39F8000800831608108810C1
:1001A0000811831288100F3083160805F038880074
:1001B00083120815000008140000C7207808BA0050
:1001C0000810000008140000C7207808B9000810C3
:1001D0000F3083160805880083123A0EF700F030BE
:1001E000F70577083904F8007808B900B91BD32857
:1001F000371C8810371888140000081100000810F8
:10020000380EB9000F30B9053908BA00BB203808DC
:100210000F39B900BA00BB2008000F30831608055B
:10022000880008108810081183128810081108101F
:100230000F30B300A6200130AC002C08033C031C97
:1002400029290330BA00BB200530B300A620AC0A30
:100250001D290230BA00BB200530B300A620AC0136
:100260002C08033C031C3D292C083820AD00B701A5
:100270002D08B800CD20AC0A30298A110A129F2A15
:10028000340B432946294030B5004729B5010130D8
:100290003302B50735088038B600B7013608B80014
:1002A000CD2008003208073A031960290B3A0319D8
:1002B0006529063A03196D29023A03197329782929
:1002C0000130B300B40040217D29B7010130B800EE
:1002D000CD200230B300A6207D290130B3000230CA
:1002E000B40040217D29B7011030B800CD207D2910
:1002F0000130B7003208B800CD2008000B08AC0070
:100300008B13831603178C170C1400000000831244
:100310000C087F390319C5290313AD0003170D0815
:100320000313AE0003170F080313AF002D08B2002C
:1003300052212E0803178D0003132F0803178F0077
:1003400083168C170C140000000083120C0D0E0D88
:100350007F390319C5290313AD0003170D080313D3
:10036000AE0003170F080313AF002D08B20052218F
:100370002E0803178D0003132F0803178F008D0A13
:1003800003198F0A0313812903170313AC1B8B175F
:1003900008000B08AD008B13831603178C170C1481
:1003A000000000000318FB2983120C087F39031397
:1003B000AE0003170D080313AF0003170F08031354
:1003C000B0002E08B20052212F0803178D0003132E
:1003D000300803178F0083168C170C1400000000E0
:1003E00083120313AC0BF529F82983160317FB2995
:1003F0001A2A8316031783120C0D0E0D7F3903136F
:10040000AE0003170D080313AF0003170F08031303
:10041000B0002E08B20052212F0803178D000313DD
:10042000300803178F008D0A03198F0A0310031376
:10043000AC0BCC29AD1B8B1708003308F801320236
:100440000318252A3208F700312AF7010830B400D2
:10045000B20DF70D330877020318F700F80DB40B4F
:10046000282A080020302D1E3030AE002C08F7005E
:10047000AC1F422AF709F70A7708AC002D30AE000E
:10048000AD172D142C08B2006430B3001D2277087C
:10049000AC0030307807AF002C08B2000A30B3004F
:1004A0001D2230307707B10030307807B0002E08B9
:1004B000F70030302F020319612AAD14AD1B2D1542
:1004C000752A2E08AF002030AE00303030020319FC
:1004D0006D2A2D14AD1BAD14752A031D2D14031D9B
:1004E000752A2F08B0002030AF002D197C2AAD18D6
:1004F0007F2A2D18822A852A2E08B20052212F0821
:10050000B20052213008B20052213108B20052210B
:10051000080003081F398300A701A801A901AA0147
:10052000AB0183161F149F141F159F1107309C00E9
:100530008313033086000830880083120D29B530FC
:1005400090008E010C308F0080308E0083160C14CA
:1005500083120B1683160117C03083128B042B08ED
:100560003B3C0318B52AAA0AAB012A083B3C0318F6
:10057000BB2AA90AAA012908173C031CA901270BB9
:10058000FE2A83160C1001308312B300B400402100
:10059000623003178D0000308F0003137E21861C0C
:1005A000D92AFA30B300A620A90A2908173C031C4F
:1005B000A9010130B3000230B40040216B300317B1
:1005C0008D0000308F00031004300313AC00C921EC
:1005D0002908AC001130AD0032223A30B20052216D
:1005E0002A08AC001130AD0032223A30B20052215C
:1005F0002B08AC001130AD003222AF2B2708023C93
:10060000031D3F2B83160C1001308312B300B4007E
:100610004021733003178D0000308F0003137E21BB
:10062000861C1A2BFA30B300A620AA0A2A083B3CE3
:10063000031CAA010130B3000230B40040217C3019
:1006400003178D0000308F00031004300313AC003B
:10065000C9212908AC001130AD0032223A30B20075
:1006600052212A08AC001130AD0032223A30B200DB
:1006700052212B08AC001130AD003222AF2B2708DD
:10068000033C031D802B83160C1001308312B30032
:10069000B4004021843003178D0000308F00031315
:1006A0007E21861C5B2BFA30B300A620AB0A2B08F8
:1006B0003B3C031CAB010130B3000230B4004021CD
:1006C0008D3003178D0000308F00031004300313AA
:1006D000AC00C9212908AC001130AD0032223A30FB
:1006E000B20052212A08AC001130AD0032223A305B
:1006F000B20052212B08AC001130AD003222AF2BDA
:100700000130B300B4004021953003178D00003054
:100710008F0003137E210130B3000230B40040216A
:100720009E3003178D0000308F0003100430031338
:10073000AC00C9212908AC001130AD0032223A309A
:10074000B20052212A08AC001130AD0032223A30FA
:10075000B20052212B08AC001130AD003222AF2A7A
:02076000630034
:02400E00713F00
:00000001FF
;PIC16F877A
;CRC=8C7F  CREATED="24-dic.-23 15:48"
