:1000000002308A009E2A0000FF00030E8301A10037
:100010000A08A0008A010408A2007708A300780853
:10002000A4007908A5007A08A600831383120B1E8A
:100030001B288B1832288C308400001C21280C18B7
:100040003528220884002308F7002408F800250832
:10005000F9002608FA0020088A00210E8300FF0E0E
:100060007F0E09008A110A1252288A110A124028AA
:100070000A108A100A11820728340C34013406341D
:100080008E010C308F0080308E00A80A2808023CB8
:10009000031D4E2804308606A801AD0A0C108A11F3
:1000A0000A12212883160C108312A70A2708043C81
:1000B00003185E28A70183160C1483128B108A1173
:1000C0000A1221284135F539F4307210C837F23060
:1000D000201020100000201020102519641D251963
:1000E000641D251964004135F539F4307210CD34A2
:1000F000EE3AF43773100001201020102519641D0A
:100100002519641D251964004135F539F430721044
:10011000D332E7327537E437731000012010201016
:100120002519641D2519641D251964004135F5390B
:10013000F4307210C637F236613A6F102000C637BD
:10014000F236613A6F1D25196410E837F2307300FA
:100150002010D232EC376A10C434E734F4306C101B
:100160002000201020102519641D2519641D251953
:100170006410201020003530840083130008031918
:10018000CF280130F800F701F70BC428F80BC3287B
:100190004A30F700F70BCA28CD28800BC128080089
:1001A0003C0EF039F7000F30080577048800000096
:1001B0000814DA28081008000808F700080E0F399C
:1001C000F8000800831608108810081183128810A0
:1001D0000F3083160805F0388800831208150000D8
:1001E00008140000DC207808BC0008100000081487
:1001F0000000DC207808BB0008100F3083160805CB
:10020000880083123C0EF700F030F70577083B04B6
:10021000F8007808BB00BB1BE828391C8810391887
:10022000881400000811000008103A0EBB000F30BF
:10023000BB053B08BC00D0203A080F39BB00BC000E
:10024000D02008000F308316080588000810881099
:10025000081183128810081108100F30B500BB2058
:100260000130AE002E08033C031C3E290330BC00C5
:10027000D0200530B500BB20AE0A32290230BC00C8
:10028000D0200530B500BB20AE012E08033C031C76
:1002900052292E083820AF00B9012F08BA00E220F9
:1002A000AE0A45298A110A12B82A360B58295B2949
:1002B0004030B7005C29B70101303502B707370875
:1002C0008038B800B9013808BA00E22008003408C4
:1002D000073A031975290B3A03197A29063A0319C3
:1002E0008229023A031988298D290130B500B60008
:1002F00055219229B9010130BA00E2200230B5003F
:10030000BB2092290130B5000230B6005521922958
:10031000B9011030BA00E22092290130B900340846
:10032000BA00E22008000B08AE008B1383160317F7
:100330008C170C140000000083120C087F3903197D
:10034000DA290313AF0003170D080313B0000317D6
:100350000F080313B1002F08B400672130080317FA
:100360008D000313310803178F0083168C170C14AC
:100370000000000083120C0D0E0D7F390319DA29DD
:100380000313AF0003170D080313B00003170F0882
:100390000313B1002F08B4006721300803178D0044
:1003A0000313310803178F008D0A03198F0A0313F3
:1003B000962903170313AE1B8B1708000B08AF0019
:1003C0008B13831603178C170C14000000000318FE
:1003D000102A83120C087F390313B00003170D088D
:1003E0000313B10003170F080313B2003008B40061
:1003F0006721310803178D000313320803178F009C
:1004000083168C170C140000000083120313AE0B2C
:100410000A2A0D2A83160317102A2F2A8316031778
:1004200083120C0D0E0D7F390313B00003170D0856
:100430000313B10003170F080313B2003008B40010
:100440006721310803178D000313320803178F004B
:100450008D0A03198F0A03100313AE0BE129AF1B9A
:100460008B1708003508F801340203183A2A3408BB
:10047000F700462AF7010830B600B40DF70D35082D
:1004800077020318F700F80DB60B3D2A080020305C
:100490002F1E3030B0002E08F700AE1F572AF70984
:1004A000F70A7708AE002D30B000AF172F142E08D2
:1004B000B4006430B50032227708AE0030307807DF
:1004C000B1002E08B4000A30B50032223030770770
:1004D000B30030307807B2003008F7003030310216
:1004E0000319762AAF14AF1B2F158A2A3008B100E2
:1004F0002030B000303032020319822A2F14AF1B93
:10050000AF148A2A031D2F14031D8A2A3108B20052
:100510002030B1002F19912AAF18942A2F18972A4A
:100520009A2A3008B40067213108B40067213208E4
:10053000B40067213308B4006721080003081F399D
:100540008300A701A801A9011830AA000130AB005F
:10055000AC01AD0183161F149F141F159F110730A6
:100560009C00831303308600083088008312222900
:10057000B53090008E010C308F0080308E008316D5
:100580000C1483120B1683160117C03083128B04D0
:100590002D083B3C0318CE2AAC0AAD012C083B3C8D
:1005A0000318D42AAB0AAC012B082A020318DA2A52
:1005B0000130AB00270B1B2B83160C10013083126C
:1005C000B500B6005521623003178D0000308F0052
:1005D00003139321861CF62AFA30B500BB20AB0A20
:1005E0002B082A020318F62A0130AB000130B500AF
:1005F0000230B60055216B3003178D0000308F009C
:10060000031004300313AE00DE212B08AE001130BE
:10061000AF0047223A30B40067212C08AE001130F9
:10062000AF0047223A30B40067212D08AE001130E8
:10063000AF004722192C2708023C031D5C2B8316B0
:100640000C1001308312B500B6005521733003172A
:100650008D0000308F0003139321861C372BFA3056
:10066000B500BB20AC0A2C083B3C031CAC0101309C
:10067000B5000230B60055217C3003178D000030E4
:100680008F00031004300313AE00DE212B08AE00F0
:100690001130AF0047223A30B40067212C08AE0079
:1006A0001130AF0047223A30B40067212D08AE0068
:1006B0001130AF004722192C2708033C031D9D2B46
:1006C00083160C1001308312B500B600552184301A
:1006D00003178D0000308F0003139321861C782BA5
:1006E000FA30B500BB20AD0A2D083B3C031CAD0120
:1006F0000130B5000230B60055218E3003178D0051
:1007000000308F00031004300313AE00DE212B08ED
:10071000AE001130AF0047223A30B40067212C08F8
:10072000AE001130AF0047223A30B40067212D08E7
:10073000AE001130AF004722192C2708043C031DDE
:10074000E02B83160C1001308312B500B600552142
:10075000963003178D0000308F0003139321861C01
:10076000C12BFA30B500BB20A90A290BBA2B1830CF
:10077000AA00C12B2908023C031DC12B0C30AA0082
:10078000A9010130B5000230B60055219F30031792
:100790008D0000308F00031008300313AE00DE21FF
:1007A0002A08AE001130AF004722A43003178D0095
:1007B00000308F00031406300313AE00DE21192C25
:1007C0000130B500B6005521A83003178D00003068
:1007D0008F00031393210130B5000230B60055217C
:1007E000B13003178D0000308F0003100430031365
:1007F000AE00DE212B08AE001130AF0047223A30A8
:10080000B40067212C08AE001130AF0047223A3007
:10081000B40067212D08AE001130AF004722B83078
:1008200003178D0000308F00031404300313AE0053
:06083000DE21C82A63006E
:02400E00713F00
:00000001FF
;PIC16F877A
;CRC=C44B  CREATED="04-ene.-24 12:14"
